{
  "_format": "hh-sol-artifact-1",
  "contractName": "NFTMarketplace",
  "sourceName": "contracts/NFTMarketplace.sol",
  "abi": [
    {
      "inputs": [],
      "stateMutability": "nonpayable",
      "type": "constructor"
    },
    {
      "anonymous": false,
      "inputs": [
        {
          "indexed": true,
          "internalType": "address",
          "name": "owner",
          "type": "address"
        },
        {
          "indexed": true,
          "internalType": "address",
          "name": "approved",
          "type": "address"
        },
        {
          "indexed": true,
          "internalType": "uint256",
          "name": "tokenId",
          "type": "uint256"
        }
      ],
      "name": "Approval",
      "type": "event"
    },
    {
      "anonymous": false,
      "inputs": [
        {
          "indexed": true,
          "internalType": "address",
          "name": "owner",
          "type": "address"
        },
        {
          "indexed": true,
          "internalType": "address",
          "name": "operator",
          "type": "address"
        },
        {
          "indexed": false,
          "internalType": "bool",
          "name": "approved",
          "type": "bool"
        }
      ],
      "name": "ApprovalForAll",
      "type": "event"
    },
    {
      "anonymous": false,
      "inputs": [
        {
          "indexed": false,
          "internalType": "uint256",
          "name": "_fromTokenId",
          "type": "uint256"
        },
        {
          "indexed": false,
          "internalType": "uint256",
          "name": "_toTokenId",
          "type": "uint256"
        }
      ],
      "name": "BatchMetadataUpdate",
      "type": "event"
    },
    {
      "anonymous": false,
      "inputs": [
        {
          "indexed": true,
          "internalType": "uint256",
          "name": "tokenId",
          "type": "uint256"
        },
        {
          "indexed": false,
          "internalType": "address",
          "name": "seller",
          "type": "address"
        },
        {
          "indexed": false,
          "internalType": "address",
          "name": "owner",
          "type": "address"
        },
        {
          "indexed": false,
          "internalType": "uint256",
          "name": "price",
          "type": "uint256"
        },
        {
          "indexed": false,
          "internalType": "bool",
          "name": "sold",
          "type": "bool"
        }
      ],
      "name": "MarketItemCreated",
      "type": "event"
    },
    {
      "anonymous": false,
      "inputs": [
        {
          "indexed": false,
          "internalType": "uint256",
          "name": "_tokenId",
          "type": "uint256"
        }
      ],
      "name": "MetadataUpdate",
      "type": "event"
    },
    {
      "anonymous": false,
      "inputs": [
        {
          "indexed": true,
          "internalType": "address",
          "name": "from",
          "type": "address"
        },
        {
          "indexed": true,
          "internalType": "address",
          "name": "to",
          "type": "address"
        },
        {
          "indexed": true,
          "internalType": "uint256",
          "name": "tokenId",
          "type": "uint256"
        }
      ],
      "name": "Transfer",
      "type": "event"
    },
    {
      "inputs": [
        {
          "internalType": "address",
          "name": "to",
          "type": "address"
        },
        {
          "internalType": "uint256",
          "name": "tokenId",
          "type": "uint256"
        }
      ],
      "name": "approve",
      "outputs": [],
      "stateMutability": "nonpayable",
      "type": "function"
    },
    {
      "inputs": [
        {
          "internalType": "address",
          "name": "owner",
          "type": "address"
        }
      ],
      "name": "balanceOf",
      "outputs": [
        {
          "internalType": "uint256",
          "name": "",
          "type": "uint256"
        }
      ],
      "stateMutability": "view",
      "type": "function"
    },
    {
      "inputs": [
        {
          "internalType": "uint256",
          "name": "tokenId",
          "type": "uint256"
        }
      ],
      "name": "createMarketSale",
      "outputs": [],
      "stateMutability": "payable",
      "type": "function"
    },
    {
      "inputs": [
        {
          "internalType": "string",
          "name": "tokenURI",
          "type": "string"
        },
        {
          "internalType": "uint256",
          "name": "price",
          "type": "uint256"
        }
      ],
      "name": "createToken",
      "outputs": [
        {
          "internalType": "uint256",
          "name": "",
          "type": "uint256"
        }
      ],
      "stateMutability": "payable",
      "type": "function"
    },
    {
      "inputs": [],
      "name": "fetchMarketItems",
      "outputs": [
        {
          "components": [
            {
              "internalType": "uint256",
              "name": "tokenId",
              "type": "uint256"
            },
            {
              "internalType": "address payable",
              "name": "seller",
              "type": "address"
            },
            {
              "internalType": "address payable",
              "name": "owner",
              "type": "address"
            },
            {
              "internalType": "uint256",
              "name": "price",
              "type": "uint256"
            },
            {
              "internalType": "bool",
              "name": "sold",
              "type": "bool"
            }
          ],
          "internalType": "struct NFTMarketplace.MarketItem[]",
          "name": "",
          "type": "tuple[]"
        }
      ],
      "stateMutability": "view",
      "type": "function"
    },
    {
      "inputs": [],
      "name": "fetchMyItems",
      "outputs": [
        {
          "components": [
            {
              "internalType": "uint256",
              "name": "tokenId",
              "type": "uint256"
            },
            {
              "internalType": "address payable",
              "name": "seller",
              "type": "address"
            },
            {
              "internalType": "address payable",
              "name": "owner",
              "type": "address"
            },
            {
              "internalType": "uint256",
              "name": "price",
              "type": "uint256"
            },
            {
              "internalType": "bool",
              "name": "sold",
              "type": "bool"
            }
          ],
          "internalType": "struct NFTMarketplace.MarketItem[]",
          "name": "",
          "type": "tuple[]"
        }
      ],
      "stateMutability": "view",
      "type": "function"
    },
    {
      "inputs": [
        {
          "internalType": "uint256",
          "name": "tokenId",
          "type": "uint256"
        }
      ],
      "name": "getApproved",
      "outputs": [
        {
          "internalType": "address",
          "name": "",
          "type": "address"
        }
      ],
      "stateMutability": "view",
      "type": "function"
    },
    {
      "inputs": [],
      "name": "getListingPrice",
      "outputs": [
        {
          "internalType": "uint256",
          "name": "",
          "type": "uint256"
        }
      ],
      "stateMutability": "view",
      "type": "function"
    },
    {
      "inputs": [
        {
          "internalType": "address",
          "name": "owner",
          "type": "address"
        },
        {
          "internalType": "address",
          "name": "operator",
          "type": "address"
        }
      ],
      "name": "isApprovedForAll",
      "outputs": [
        {
          "internalType": "bool",
          "name": "",
          "type": "bool"
        }
      ],
      "stateMutability": "view",
      "type": "function"
    },
    {
      "inputs": [],
      "name": "listingPrice",
      "outputs": [
        {
          "internalType": "uint256",
          "name": "",
          "type": "uint256"
        }
      ],
      "stateMutability": "view",
      "type": "function"
    },
    {
      "inputs": [],
      "name": "name",
      "outputs": [
        {
          "internalType": "string",
          "name": "",
          "type": "string"
        }
      ],
      "stateMutability": "view",
      "type": "function"
    },
    {
      "inputs": [],
      "name": "owner",
      "outputs": [
        {
          "internalType": "address payable",
          "name": "",
          "type": "address"
        }
      ],
      "stateMutability": "view",
      "type": "function"
    },
    {
      "inputs": [
        {
          "internalType": "uint256",
          "name": "tokenId",
          "type": "uint256"
        }
      ],
      "name": "ownerOf",
      "outputs": [
        {
          "internalType": "address",
          "name": "",
          "type": "address"
        }
      ],
      "stateMutability": "view",
      "type": "function"
    },
    {
      "inputs": [
        {
          "internalType": "uint256",
          "name": "tokenId",
          "type": "uint256"
        },
        {
          "internalType": "uint256",
          "name": "price",
          "type": "uint256"
        }
      ],
      "name": "resellToken",
      "outputs": [],
      "stateMutability": "payable",
      "type": "function"
    },
    {
      "inputs": [
        {
          "internalType": "address",
          "name": "from",
          "type": "address"
        },
        {
          "internalType": "address",
          "name": "to",
          "type": "address"
        },
        {
          "internalType": "uint256",
          "name": "tokenId",
          "type": "uint256"
        }
      ],
      "name": "safeTransferFrom",
      "outputs": [],
      "stateMutability": "nonpayable",
      "type": "function"
    },
    {
      "inputs": [
        {
          "internalType": "address",
          "name": "from",
          "type": "address"
        },
        {
          "internalType": "address",
          "name": "to",
          "type": "address"
        },
        {
          "internalType": "uint256",
          "name": "tokenId",
          "type": "uint256"
        },
        {
          "internalType": "bytes",
          "name": "data",
          "type": "bytes"
        }
      ],
      "name": "safeTransferFrom",
      "outputs": [],
      "stateMutability": "nonpayable",
      "type": "function"
    },
    {
      "inputs": [
        {
          "internalType": "address",
          "name": "operator",
          "type": "address"
        },
        {
          "internalType": "bool",
          "name": "approved",
          "type": "bool"
        }
      ],
      "name": "setApprovalForAll",
      "outputs": [],
      "stateMutability": "nonpayable",
      "type": "function"
    },
    {
      "inputs": [
        {
          "internalType": "bytes4",
          "name": "interfaceId",
          "type": "bytes4"
        }
      ],
      "name": "supportsInterface",
      "outputs": [
        {
          "internalType": "bool",
          "name": "",
          "type": "bool"
        }
      ],
      "stateMutability": "view",
      "type": "function"
    },
    {
      "inputs": [],
      "name": "symbol",
      "outputs": [
        {
          "internalType": "string",
          "name": "",
          "type": "string"
        }
      ],
      "stateMutability": "view",
      "type": "function"
    },
    {
      "inputs": [
        {
          "internalType": "uint256",
          "name": "tokenId",
          "type": "uint256"
        }
      ],
      "name": "tokenURI",
      "outputs": [
        {
          "internalType": "string",
          "name": "",
          "type": "string"
        }
      ],
      "stateMutability": "view",
      "type": "function"
    },
    {
      "inputs": [
        {
          "internalType": "address",
          "name": "from",
          "type": "address"
        },
        {
          "internalType": "address",
          "name": "to",
          "type": "address"
        },
        {
          "internalType": "uint256",
          "name": "tokenId",
          "type": "uint256"
        }
      ],
      "name": "transferFrom",
      "outputs": [],
      "stateMutability": "nonpayable",
      "type": "function"
    },
    {
      "inputs": [
        {
          "internalType": "uint256",
          "name": "_listingPrice",
          "type": "uint256"
        }
      ],
      "name": "updateListingPrice",
      "outputs": [],
      "stateMutability": "nonpayable",
      "type": "function"
    }
  ],
  "bytecode": "0x60806040526658d15e176280006009553480156200001c57600080fd5b506040518060400160405280600e81526020017f4e46544d61726b6574706c6163650000000000000000000000000000000000008152506040518060400160405280600481526020017f4e46544d0000000000000000000000000000000000000000000000000000000081525081600090816200009a919062000370565b508060019081620000ac919062000370565b50505033600a60006101000a81548173ffffffffffffffffffffffffffffffffffffffff021916908373ffffffffffffffffffffffffffffffffffffffff16021790555062000457565b600081519050919050565b7f4e487b7100000000000000000000000000000000000000000000000000000000600052604160045260246000fd5b7f4e487b7100000000000000000000000000000000000000000000000000000000600052602260045260246000fd5b600060028204905060018216806200017857607f821691505b6020821081036200018e576200018d62000130565b5b50919050565b60008190508160005260206000209050919050565b60006020601f8301049050919050565b600082821b905092915050565b600060088302620001f87fffffffffffffffffffffffffffffffffffffffffffffffffffffffffffffffff82620001b9565b620002048683620001b9565b95508019841693508086168417925050509392505050565b6000819050919050565b6000819050919050565b6000620002516200024b62000245846200021c565b62000226565b6200021c565b9050919050565b6000819050919050565b6200026d8362000230565b620002856200027c8262000258565b848454620001c6565b825550505050565b600090565b6200029c6200028d565b620002a981848462000262565b505050565b5b81811015620002d157620002c560008262000292565b600181019050620002af565b5050565b601f8211156200032057620002ea8162000194565b620002f584620001a9565b8101602085101562000305578190505b6200031d6200031485620001a9565b830182620002ae565b50505b505050565b600082821c905092915050565b6000620003456000198460080262000325565b1980831691505092915050565b600062000360838362000332565b9150826002028217905092915050565b6200037b82620000f6565b67ffffffffffffffff81111562000397576200039662000101565b5b620003a382546200015f565b620003b0828285620002d5565b600060209050601f831160018114620003e85760008415620003d3578287015190505b620003df858262000352565b8655506200044f565b601f198416620003f88662000194565b60005b828110156200042257848901518255600182019150602085019450602081019050620003fb565b868310156200044257848901516200043e601f89168262000332565b8355505b6001600288020188555050505b505050505050565b6140d280620004676000396000f3fe6080604052600436106101355760003560e01c806372b3b620116100ab578063b88d4fde1161006f578063b88d4fde1461042d578063be9af53614610456578063c78f19f914610472578063c87b56dd1461049d578063e219fc75146104da578063e985e9c5146104f657610135565b806372b3b620146103555780638da5cb5b1461038557806395d89b41146103b0578063a22cb465146103db578063ae677aa31461040457610135565b806312e85585116100fd57806312e855851461023357806315c9ae101461025e57806323b872dd1461028957806342842e0e146102b25780636352211e146102db57806370a082311461031857610135565b806301ffc9a71461013a57806306fdde0314610177578063081812fc146101a2578063095ea7b3146101df5780630f08efe014610208575b600080fd5b34801561014657600080fd5b50610161600480360381019061015c9190612948565b610533565b60405161016e9190612990565b60405180910390f35b34801561018357600080fd5b5061018c610594565b6040516101999190612a3b565b60405180910390f35b3480156101ae57600080fd5b506101c960048036038101906101c49190612a93565b610626565b6040516101d69190612b01565b60405180910390f35b3480156101eb57600080fd5b5061020660048036038101906102019190612b48565b61066c565b005b34801561021457600080fd5b5061021d610783565b60405161022a9190612cde565b60405180910390f35b34801561023f57600080fd5b506102486109e5565b6040516102559190612d0f565b60405180910390f35b34801561026a57600080fd5b506102736109ef565b6040516102809190612cde565b60405180910390f35b34801561029557600080fd5b506102b060048036038101906102ab9190612d2a565b610ccf565b005b3480156102be57600080fd5b506102d960048036038101906102d49190612d2a565b610d2f565b005b3480156102e757600080fd5b5061030260048036038101906102fd9190612a93565b610d4f565b60405161030f9190612b01565b60405180910390f35b34801561032457600080fd5b5061033f600480360381019061033a9190612d7d565b610dd5565b60405161034c9190612d0f565b60405180910390f35b61036f600480360381019061036a9190612edf565b610e8c565b60405161037c9190612d0f565b60405180910390f35b34801561039157600080fd5b5061039a610f54565b6040516103a79190612f4a565b60405180910390f35b3480156103bc57600080fd5b506103c5610f7a565b6040516103d29190612a3b565b60405180910390f35b3480156103e757600080fd5b5061040260048036038101906103fd9190612f91565b61100c565b005b34801561041057600080fd5b5061042b60048036038101906104269190612a93565b611022565b005b34801561043957600080fd5b50610454600480360381019061044f9190613072565b6110bc565b005b610470600480360381019061046b9190612a93565b61111e565b005b34801561047e57600080fd5b5061048761135c565b6040516104949190612d0f565b60405180910390f35b3480156104a957600080fd5b506104c460048036038101906104bf9190612a93565b611362565b6040516104d19190612a3b565b60405180910390f35b6104f460048036038101906104ef91906130f5565b611474565b005b34801561050257600080fd5b5061051d60048036038101906105189190613135565b611669565b60405161052a9190612990565b60405180910390f35b6000634906490660e01b7bffffffffffffffffffffffffffffffffffffffffffffffffffffffff1916827bffffffffffffffffffffffffffffffffffffffffffffffffffffffff1916148061058d575061058c826116fd565b5b9050919050565b6060600080546105a3906131a4565b80601f01602080910402602001604051908101604052809291908181526020018280546105cf906131a4565b801561061c5780601f106105f15761010080835404028352916020019161061c565b820191906000526020600020905b8154815290600101906020018083116105ff57829003601f168201915b5050505050905090565b6000610631826117df565b6004600083815260200190815260200160002060009054906101000a900473ffffffffffffffffffffffffffffffffffffffff169050919050565b600061067782610d4f565b90508073ffffffffffffffffffffffffffffffffffffffff168373ffffffffffffffffffffffffffffffffffffffff16036106e7576040517f08c379a00000000000000000000000000000000000000000000000000000000081526004016106de90613247565b60405180910390fd5b8073ffffffffffffffffffffffffffffffffffffffff1661070661182a565b73ffffffffffffffffffffffffffffffffffffffff16148061073557506107348161072f61182a565b611669565b5b610774576040517f08c379a000000000000000000000000000000000000000000000000000000000815260040161076b906132d9565b60405180910390fd5b61077e8383611832565b505050565b6060600061079160076118eb565b9050600061079f60086118eb565b6107a960076118eb565b6107b39190613328565b90506000808267ffffffffffffffff8111156107d2576107d1612db4565b5b60405190808252806020026020018201604052801561080b57816020015b6107f861287f565b8152602001906001900390816107f05790505b50905060005b848110156109da573073ffffffffffffffffffffffffffffffffffffffff16600b6000600184610841919061335c565b815260200190815260200160002060020160009054906101000a900473ffffffffffffffffffffffffffffffffffffffff1673ffffffffffffffffffffffffffffffffffffffff16036109cd57600060018261089d919061335c565b90506000600b60008381526020019081526020016000209050806040518060a0016040529081600082015481526020016001820160009054906101000a900473ffffffffffffffffffffffffffffffffffffffff1673ffffffffffffffffffffffffffffffffffffffff1673ffffffffffffffffffffffffffffffffffffffff1681526020016002820160009054906101000a900473ffffffffffffffffffffffffffffffffffffffff1673ffffffffffffffffffffffffffffffffffffffff1673ffffffffffffffffffffffffffffffffffffffff168152602001600382015481526020016004820160009054906101000a900460ff1615151515815250508486815181106109b0576109af613390565b5b60200260200101819052506001856109c8919061335c565b945050505b8080600101915050610811565b508094505050505090565b6000600954905090565b606060006109fd60076118eb565b905060008060005b83811015610a9f573373ffffffffffffffffffffffffffffffffffffffff16600b6000600184610a35919061335c565b815260200190815260200160002060010160009054906101000a900473ffffffffffffffffffffffffffffffffffffffff1673ffffffffffffffffffffffffffffffffffffffff1603610a9257600183610a8f919061335c565b92505b8080600101915050610a05565b5060008267ffffffffffffffff811115610abc57610abb612db4565b5b604051908082528060200260200182016040528015610af557816020015b610ae261287f565b815260200190600190039081610ada5790505b50905060005b84811015610cc4573373ffffffffffffffffffffffffffffffffffffffff16600b6000600184610b2b919061335c565b815260200190815260200160002060010160009054906101000a900473ffffffffffffffffffffffffffffffffffffffff1673ffffffffffffffffffffffffffffffffffffffff1603610cb7576000600182610b87919061335c565b90506000600b60008381526020019081526020016000209050806040518060a0016040529081600082015481526020016001820160009054906101000a900473ffffffffffffffffffffffffffffffffffffffff1673ffffffffffffffffffffffffffffffffffffffff1673ffffffffffffffffffffffffffffffffffffffff1681526020016002820160009054906101000a900473ffffffffffffffffffffffffffffffffffffffff1673ffffffffffffffffffffffffffffffffffffffff1673ffffffffffffffffffffffffffffffffffffffff168152602001600382015481526020016004820160009054906101000a900460ff161515151581525050848681518110610c9a57610c99613390565b5b6020026020010181905250600185610cb2919061335c565b945050505b8080600101915050610afb565b508094505050505090565b610ce0610cda61182a565b826118f9565b610d1f576040517f08c379a0000000000000000000000000000000000000000000000000000000008152600401610d1690613431565b60405180910390fd5b610d2a83838361198e565b505050565b610d4a838383604051806020016040528060008152506110bc565b505050565b600080610d5b83611c87565b9050600073ffffffffffffffffffffffffffffffffffffffff168173ffffffffffffffffffffffffffffffffffffffff1603610dcc576040517f08c379a0000000000000000000000000000000000000000000000000000000008152600401610dc39061349d565b60405180910390fd5b80915050919050565b60008073ffffffffffffffffffffffffffffffffffffffff168273ffffffffffffffffffffffffffffffffffffffff1603610e45576040517f08c379a0000000000000000000000000000000000000000000000000000000008152600401610e3c9061352f565b60405180910390fd5b600360008373ffffffffffffffffffffffffffffffffffffffff1673ffffffffffffffffffffffffffffffffffffffff168152602001908152602001600020549050919050565b6000808211610ed0576040517f08c379a0000000000000000000000000000000000000000000000000000000008152600401610ec79061359b565b60405180910390fd5b6009543414610f14576040517f08c379a0000000000000000000000000000000000000000000000000000000008152600401610f0b9061362d565b60405180910390fd5b610f1e6007611cc4565b6000610f2a60076118eb565b9050610f363382611cda565b610f408185611ef7565b610f4a8184611f9b565b8091505092915050565b600a60009054906101000a900473ffffffffffffffffffffffffffffffffffffffff1681565b606060018054610f89906131a4565b80601f0160208091040260200160405190810160405280929190818152602001828054610fb5906131a4565b80156110025780601f10610fd757610100808354040283529160200191611002565b820191906000526020600020905b815481529060010190602001808311610fe557829003601f168201915b5050505050905090565b61101e61101761182a565b838361215a565b5050565b600a60009054906101000a900473ffffffffffffffffffffffffffffffffffffffff1673ffffffffffffffffffffffffffffffffffffffff163373ffffffffffffffffffffffffffffffffffffffff16146110b2576040517f08c379a00000000000000000000000000000000000000000000000000000000081526004016110a9906136bf565b60405180910390fd5b8060098190555050565b6110cd6110c761182a565b836118f9565b61110c576040517f08c379a000000000000000000000000000000000000000000000000000000000815260040161110390613431565b60405180910390fd5b611118848484846122c6565b50505050565b6000600b60008381526020019081526020016000206003015490506000600b600084815260200190815260200160002060010160009054906101000a900473ffffffffffffffffffffffffffffffffffffffff1690508134146111b6576040517f08c379a00000000000000000000000000000000000000000000000000000000081526004016111ad90613751565b60405180910390fd5b33600b600085815260200190815260200160002060020160006101000a81548173ffffffffffffffffffffffffffffffffffffffff021916908373ffffffffffffffffffffffffffffffffffffffff1602179055506001600b600085815260200190815260200160002060040160006101000a81548160ff0219169083151502179055506000600b600085815260200190815260200160002060010160006101000a81548173ffffffffffffffffffffffffffffffffffffffff021916908373ffffffffffffffffffffffffffffffffffffffff16021790555061129a6008611cc4565b6112a530338561198e565b600a60009054906101000a900473ffffffffffffffffffffffffffffffffffffffff1673ffffffffffffffffffffffffffffffffffffffff166108fc6009549081150290604051600060405180830381858888f1935050505015801561130f573d6000803e3d6000fd5b508073ffffffffffffffffffffffffffffffffffffffff166108fc349081150290604051600060405180830381858888f19350505050158015611356573d6000803e3d6000fd5b50505050565b60095481565b606061136d826117df565b600060066000848152602001908152602001600020805461138d906131a4565b80601f01602080910402602001604051908101604052809291908181526020018280546113b9906131a4565b80156114065780601f106113db57610100808354040283529160200191611406565b820191906000526020600020905b8154815290600101906020018083116113e957829003601f168201915b505050505090506000611417612322565b9050600081510361142c57819250505061146f565b6000825111156114615780826040516020016114499291906137ad565b6040516020818303038152906040529250505061146f565b61146a84612339565b925050505b919050565b3373ffffffffffffffffffffffffffffffffffffffff16600b600084815260200190815260200160002060020160009054906101000a900473ffffffffffffffffffffffffffffffffffffffff1673ffffffffffffffffffffffffffffffffffffffff1614611518576040517f08c379a000000000000000000000000000000000000000000000000000000000815260040161150f90613843565b60405180910390fd5b600954341461155c576040517f08c379a00000000000000000000000000000000000000000000000000000000081526004016115539061362d565b60405180910390fd5b6000600b600084815260200190815260200160002060040160006101000a81548160ff02191690831515021790555080600b60008481526020019081526020016000206003018190555033600b600084815260200190815260200160002060010160006101000a81548173ffffffffffffffffffffffffffffffffffffffff021916908373ffffffffffffffffffffffffffffffffffffffff16021790555030600b600084815260200190815260200160002060020160006101000a81548173ffffffffffffffffffffffffffffffffffffffff021916908373ffffffffffffffffffffffffffffffffffffffff16021790555061165a60086123a1565b61166533308461198e565b5050565b6000600560008473ffffffffffffffffffffffffffffffffffffffff1673ffffffffffffffffffffffffffffffffffffffff16815260200190815260200160002060008373ffffffffffffffffffffffffffffffffffffffff1673ffffffffffffffffffffffffffffffffffffffff16815260200190815260200160002060009054906101000a900460ff16905092915050565b60007f80ac58cd000000000000000000000000000000000000000000000000000000007bffffffffffffffffffffffffffffffffffffffffffffffffffffffff1916827bffffffffffffffffffffffffffffffffffffffffffffffffffffffff191614806117c857507f5b5e139f000000000000000000000000000000000000000000000000000000007bffffffffffffffffffffffffffffffffffffffffffffffffffffffff1916827bffffffffffffffffffffffffffffffffffffffffffffffffffffffff1916145b806117d857506117d7826123fd565b5b9050919050565b6117e881612467565b611827576040517f08c379a000000000000000000000000000000000000000000000000000000000815260040161181e9061349d565b60405180910390fd5b50565b600033905090565b816004600083815260200190815260200160002060006101000a81548173ffffffffffffffffffffffffffffffffffffffff021916908373ffffffffffffffffffffffffffffffffffffffff160217905550808273ffffffffffffffffffffffffffffffffffffffff166118a583610d4f565b73ffffffffffffffffffffffffffffffffffffffff167f8c5be1e5ebec7d5bd14f71427d1e84f3dd0314c0f7b2291e5b200ac8c7c3b92560405160405180910390a45050565b600081600001549050919050565b60008061190583610d4f565b90508073ffffffffffffffffffffffffffffffffffffffff168473ffffffffffffffffffffffffffffffffffffffff16148061194757506119468185611669565b5b8061198557508373ffffffffffffffffffffffffffffffffffffffff1661196d84610626565b73ffffffffffffffffffffffffffffffffffffffff16145b91505092915050565b8273ffffffffffffffffffffffffffffffffffffffff166119ae82610d4f565b73ffffffffffffffffffffffffffffffffffffffff1614611a04576040517f08c379a00000000000000000000000000000000000000000000000000000000081526004016119fb906138d5565b60405180910390fd5b600073ffffffffffffffffffffffffffffffffffffffff168273ffffffffffffffffffffffffffffffffffffffff1603611a73576040517f08c379a0000000000000000000000000000000000000000000000000000000008152600401611a6a90613967565b60405180910390fd5b611a8083838360016124a8565b8273ffffffffffffffffffffffffffffffffffffffff16611aa082610d4f565b73ffffffffffffffffffffffffffffffffffffffff1614611af6576040517f08c379a0000000000000000000000000000000000000000000000000000000008152600401611aed906138d5565b60405180910390fd5b6004600082815260200190815260200160002060006101000a81549073ffffffffffffffffffffffffffffffffffffffff02191690556001600360008573ffffffffffffffffffffffffffffffffffffffff1673ffffffffffffffffffffffffffffffffffffffff168152602001908152602001600020600082825403925050819055506001600360008473ffffffffffffffffffffffffffffffffffffffff1673ffffffffffffffffffffffffffffffffffffffff16815260200190815260200160002060008282540192505081905550816002600083815260200190815260200160002060006101000a81548173ffffffffffffffffffffffffffffffffffffffff021916908373ffffffffffffffffffffffffffffffffffffffff160217905550808273ffffffffffffffffffffffffffffffffffffffff168473ffffffffffffffffffffffffffffffffffffffff167fddf252ad1be2c89b69c2b068fc378daa952ba7f163c4a11628f55a4df523b3ef60405160405180910390a4611c8283838360016124ae565b505050565b60006002600083815260200190815260200160002060009054906101000a900473ffffffffffffffffffffffffffffffffffffffff169050919050565b6001816000016000828254019250508190555050565b600073ffffffffffffffffffffffffffffffffffffffff168273ffffffffffffffffffffffffffffffffffffffff1603611d49576040517f08c379a0000000000000000000000000000000000000000000000000000000008152600401611d40906139d3565b60405180910390fd5b611d5281612467565b15611d92576040517f08c379a0000000000000000000000000000000000000000000000000000000008152600401611d8990613a3f565b60405180910390fd5b611da06000838360016124a8565b611da981612467565b15611de9576040517f08c379a0000000000000000000000000000000000000000000000000000000008152600401611de090613a3f565b60405180910390fd5b6001600360008473ffffffffffffffffffffffffffffffffffffffff1673ffffffffffffffffffffffffffffffffffffffff16815260200190815260200160002060008282540192505081905550816002600083815260200190815260200160002060006101000a81548173ffffffffffffffffffffffffffffffffffffffff021916908373ffffffffffffffffffffffffffffffffffffffff160217905550808273ffffffffffffffffffffffffffffffffffffffff16600073ffffffffffffffffffffffffffffffffffffffff167fddf252ad1be2c89b69c2b068fc378daa952ba7f163c4a11628f55a4df523b3ef60405160405180910390a4611ef36000838360016124ae565b5050565b611f0082612467565b611f3f576040517f08c379a0000000000000000000000000000000000000000000000000000000008152600401611f3690613ad1565b60405180910390fd5b80600660008481526020019081526020016000209081611f5f9190613c9d565b507ff8e1a15aba9398e019f0b49df1a4fde98ee17ae345cb5f6b5e2c27f5033e8ce782604051611f8f9190612d0f565b60405180910390a15050565b60008111611fde576040517f08c379a0000000000000000000000000000000000000000000000000000000008152600401611fd590613dbb565b60405180910390fd5b6040518060a001604052808381526020013373ffffffffffffffffffffffffffffffffffffffff1681526020013073ffffffffffffffffffffffffffffffffffffffff16815260200182815260200160001515815250600b60008481526020019081526020016000206000820151816000015560208201518160010160006101000a81548173ffffffffffffffffffffffffffffffffffffffff021916908373ffffffffffffffffffffffffffffffffffffffff16021790555060408201518160020160006101000a81548173ffffffffffffffffffffffffffffffffffffffff021916908373ffffffffffffffffffffffffffffffffffffffff1602179055506060820151816003015560808201518160040160006101000a81548160ff02191690831515021790555090505061211733308461198e565b817fb640004f1d14576d0c209e240cad0410e0d8c0c33a09375861fbadae2588a98d333084600060405161214e9493929190613ddb565b60405180910390a25050565b8173ffffffffffffffffffffffffffffffffffffffff168373ffffffffffffffffffffffffffffffffffffffff16036121c8576040517f08c379a00000000000000000000000000000000000000000000000000000000081526004016121bf90613e6c565b60405180910390fd5b80600560008573ffffffffffffffffffffffffffffffffffffffff1673ffffffffffffffffffffffffffffffffffffffff16815260200190815260200160002060008473ffffffffffffffffffffffffffffffffffffffff1673ffffffffffffffffffffffffffffffffffffffff16815260200190815260200160002060006101000a81548160ff0219169083151502179055508173ffffffffffffffffffffffffffffffffffffffff168373ffffffffffffffffffffffffffffffffffffffff167f17307eab39ab6107e8899845ad3d59bd9653f200f220920489ca2b5937696c31836040516122b99190612990565b60405180910390a3505050565b6122d184848461198e565b6122dd848484846124b4565b61231c576040517f08c379a000000000000000000000000000000000000000000000000000000000815260040161231390613efe565b60405180910390fd5b50505050565b606060405180602001604052806000815250905090565b6060612344826117df565b600061234e612322565b9050600081511161236e5760405180602001604052806000815250612399565b806123788461263b565b6040516020016123899291906137ad565b6040516020818303038152906040525b915050919050565b600081600001549050600081116123ed576040517f08c379a00000000000000000000000000000000000000000000000000000000081526004016123e490613f6a565b60405180910390fd5b6001810382600001819055505050565b60007f01ffc9a7000000000000000000000000000000000000000000000000000000007bffffffffffffffffffffffffffffffffffffffffffffffffffffffff1916827bffffffffffffffffffffffffffffffffffffffffffffffffffffffff1916149050919050565b60008073ffffffffffffffffffffffffffffffffffffffff1661248983611c87565b73ffffffffffffffffffffffffffffffffffffffff1614159050919050565b50505050565b50505050565b60006124d58473ffffffffffffffffffffffffffffffffffffffff16612709565b1561262e578373ffffffffffffffffffffffffffffffffffffffff1663150b7a026124fe61182a565b8786866040518563ffffffff1660e01b81526004016125209493929190613fdf565b6020604051808303816000875af192505050801561255c57506040513d601f19601f820116820180604052508101906125599190614040565b60015b6125de573d806000811461258c576040519150601f19603f3d011682016040523d82523d6000602084013e612591565b606091505b5060008151036125d6576040517f08c379a00000000000000000000000000000000000000000000000000000000081526004016125cd90613efe565b60405180910390fd5b805181602001fd5b63150b7a0260e01b7bffffffffffffffffffffffffffffffffffffffffffffffffffffffff1916817bffffffffffffffffffffffffffffffffffffffffffffffffffffffff191614915050612633565b600190505b949350505050565b60606000600161264a8461272c565b01905060008167ffffffffffffffff81111561266957612668612db4565b5b6040519080825280601f01601f19166020018201604052801561269b5781602001600182028036833780820191505090505b509050600082602001820190505b6001156126fe578080600190039150507f3031323334353637383961626364656600000000000000000000000000000000600a86061a8153600a85816126f2576126f161406d565b5b049450600085036126a9575b819350505050919050565b6000808273ffffffffffffffffffffffffffffffffffffffff163b119050919050565b600080600090507a184f03e93ff9f4daa797ed6e38ed64bf6a1f010000000000000000831061278a577a184f03e93ff9f4daa797ed6e38ed64bf6a1f01000000000000000083816127805761277f61406d565b5b0492506040810190505b6d04ee2d6d415b85acef810000000083106127c7576d04ee2d6d415b85acef810000000083816127bd576127bc61406d565b5b0492506020810190505b662386f26fc1000083106127f657662386f26fc1000083816127ec576127eb61406d565b5b0492506010810190505b6305f5e100831061281f576305f5e10083816128155761281461406d565b5b0492506008810190505b612710831061284457612710838161283a5761283961406d565b5b0492506004810190505b60648310612867576064838161285d5761285c61406d565b5b0492506002810190505b600a8310612876576001810190505b80915050919050565b6040518060a0016040528060008152602001600073ffffffffffffffffffffffffffffffffffffffff168152602001600073ffffffffffffffffffffffffffffffffffffffff168152602001600081526020016000151581525090565b6000604051905090565b600080fd5b600080fd5b60007fffffffff0000000000000000000000000000000000000000000000000000000082169050919050565b612925816128f0565b811461293057600080fd5b50565b6000813590506129428161291c565b92915050565b60006020828403121561295e5761295d6128e6565b5b600061296c84828501612933565b91505092915050565b60008115159050919050565b61298a81612975565b82525050565b60006020820190506129a56000830184612981565b92915050565b600081519050919050565b600082825260208201905092915050565b60005b838110156129e55780820151818401526020810190506129ca565b60008484015250505050565b6000601f19601f8301169050919050565b6000612a0d826129ab565b612a1781856129b6565b9350612a278185602086016129c7565b612a30816129f1565b840191505092915050565b60006020820190508181036000830152612a558184612a02565b905092915050565b6000819050919050565b612a7081612a5d565b8114612a7b57600080fd5b50565b600081359050612a8d81612a67565b92915050565b600060208284031215612aa957612aa86128e6565b5b6000612ab784828501612a7e565b91505092915050565b600073ffffffffffffffffffffffffffffffffffffffff82169050919050565b6000612aeb82612ac0565b9050919050565b612afb81612ae0565b82525050565b6000602082019050612b166000830184612af2565b92915050565b612b2581612ae0565b8114612b3057600080fd5b50565b600081359050612b4281612b1c565b92915050565b60008060408385031215612b5f57612b5e6128e6565b5b6000612b6d85828601612b33565b9250506020612b7e85828601612a7e565b9150509250929050565b600081519050919050565b600082825260208201905092915050565b6000819050602082019050919050565b612bbd81612a5d565b82525050565b6000612bce82612ac0565b9050919050565b612bde81612bc3565b82525050565b612bed81612975565b82525050565b60a082016000820151612c096000850182612bb4565b506020820151612c1c6020850182612bd5565b506040820151612c2f6040850182612bd5565b506060820151612c426060850182612bb4565b506080820151612c556080850182612be4565b50505050565b6000612c678383612bf3565b60a08301905092915050565b6000602082019050919050565b6000612c8b82612b88565b612c958185612b93565b9350612ca083612ba4565b8060005b83811015612cd1578151612cb88882612c5b565b9750612cc383612c73565b925050600181019050612ca4565b5085935050505092915050565b60006020820190508181036000830152612cf88184612c80565b905092915050565b612d0981612a5d565b82525050565b6000602082019050612d246000830184612d00565b92915050565b600080600060608486031215612d4357612d426128e6565b5b6000612d5186828701612b33565b9350506020612d6286828701612b33565b9250506040612d7386828701612a7e565b9150509250925092565b600060208284031215612d9357612d926128e6565b5b6000612da184828501612b33565b91505092915050565b600080fd5b600080fd5b7f4e487b7100000000000000000000000000000000000000000000000000000000600052604160045260246000fd5b612dec826129f1565b810181811067ffffffffffffffff82111715612e0b57612e0a612db4565b5b80604052505050565b6000612e1e6128dc565b9050612e2a8282612de3565b919050565b600067ffffffffffffffff821115612e4a57612e49612db4565b5b612e53826129f1565b9050602081019050919050565b82818337600083830152505050565b6000612e82612e7d84612e2f565b612e14565b905082815260208101848484011115612e9e57612e9d612daf565b5b612ea9848285612e60565b509392505050565b600082601f830112612ec657612ec5612daa565b5b8135612ed6848260208601612e6f565b91505092915050565b60008060408385031215612ef657612ef56128e6565b5b600083013567ffffffffffffffff811115612f1457612f136128eb565b5b612f2085828601612eb1565b9250506020612f3185828601612a7e565b9150509250929050565b612f4481612bc3565b82525050565b6000602082019050612f5f6000830184612f3b565b92915050565b612f6e81612975565b8114612f7957600080fd5b50565b600081359050612f8b81612f65565b92915050565b60008060408385031215612fa857612fa76128e6565b5b6000612fb685828601612b33565b9250506020612fc785828601612f7c565b9150509250929050565b600067ffffffffffffffff821115612fec57612feb612db4565b5b612ff5826129f1565b9050602081019050919050565b600061301561301084612fd1565b612e14565b90508281526020810184848401111561303157613030612daf565b5b61303c848285612e60565b509392505050565b600082601f83011261305957613058612daa565b5b8135613069848260208601613002565b91505092915050565b6000806000806080858703121561308c5761308b6128e6565b5b600061309a87828801612b33565b94505060206130ab87828801612b33565b93505060406130bc87828801612a7e565b925050606085013567ffffffffffffffff8111156130dd576130dc6128eb565b5b6130e987828801613044565b91505092959194509250565b6000806040838503121561310c5761310b6128e6565b5b600061311a85828601612a7e565b925050602061312b85828601612a7e565b9150509250929050565b6000806040838503121561314c5761314b6128e6565b5b600061315a85828601612b33565b925050602061316b85828601612b33565b9150509250929050565b7f4e487b7100000000000000000000000000000000000000000000000000000000600052602260045260246000fd5b600060028204905060018216806131bc57607f821691505b6020821081036131cf576131ce613175565b5b50919050565b7f4552433732313a20617070726f76616c20746f2063757272656e74206f776e6560008201527f7200000000000000000000000000000000000000000000000000000000000000602082015250565b60006132316021836129b6565b915061323c826131d5565b604082019050919050565b6000602082019050818103600083015261326081613224565b9050919050565b7f4552433732313a20617070726f76652063616c6c6572206973206e6f7420746f60008201527f6b656e206f776e6572206f7220617070726f76656420666f7220616c6c000000602082015250565b60006132c3603d836129b6565b91506132ce82613267565b604082019050919050565b600060208201905081810360008301526132f2816132b6565b9050919050565b7f4e487b7100000000000000000000000000000000000000000000000000000000600052601160045260246000fd5b600061333382612a5d565b915061333e83612a5d565b9250828203905081811115613356576133556132f9565b5b92915050565b600061336782612a5d565b915061337283612a5d565b925082820190508082111561338a576133896132f9565b5b92915050565b7f4e487b7100000000000000000000000000000000000000000000000000000000600052603260045260246000fd5b7f4552433732313a2063616c6c6572206973206e6f7420746f6b656e206f776e6560008201527f72206f7220617070726f76656400000000000000000000000000000000000000602082015250565b600061341b602d836129b6565b9150613426826133bf565b604082019050919050565b6000602082019050818103600083015261344a8161340e565b9050919050565b7f4552433732313a20696e76616c696420746f6b656e2049440000000000000000600082015250565b60006134876018836129b6565b915061349282613451565b602082019050919050565b600060208201905081810360008301526134b68161347a565b9050919050565b7f4552433732313a2061646472657373207a65726f206973206e6f74206120766160008201527f6c6964206f776e65720000000000000000000000000000000000000000000000602082015250565b60006135196029836129b6565b9150613524826134bd565b604082019050919050565b600060208201905081810360008301526135488161350c565b9050919050565b7f5072696365206d7573742062652067726561746572207468616e207a65726f00600082015250565b6000613585601f836129b6565b91506135908261354f565b602082019050919050565b600060208201905081810360008301526135b481613578565b9050919050565b7f5072696365206d75737420626520657175616c20746f206c697374696e67207060008201527f7269636500000000000000000000000000000000000000000000000000000000602082015250565b60006136176024836129b6565b9150613622826135bb565b604082019050919050565b600060208201905081810360008301526136468161360a565b9050919050565b7f4f6e6c7920746865206f776e65722063616e2075706461746520746865206c6960008201527f7374696e67207072696365000000000000000000000000000000000000000000602082015250565b60006136a9602b836129b6565b91506136b48261364d565b604082019050919050565b600060208201905081810360008301526136d88161369c565b9050919050565b7f506c65617365207375626d6974207468652061736b696e67207072696365206960008201527f6e206f7264657220746f20636f6d706c65746520746865207075726368617365602082015250565b600061373b6040836129b6565b9150613746826136df565b604082019050919050565b6000602082019050818103600083015261376a8161372e565b9050919050565b600081905092915050565b6000613787826129ab565b6137918185613771565b93506137a18185602086016129c7565b80840191505092915050565b60006137b9828561377c565b91506137c5828461377c565b91508190509392505050565b7f4f6e6c7920746865206974656d206f776e65722063616e20706572666f726d2060008201527f74686973206f7065726174696f6e000000000000000000000000000000000000602082015250565b600061382d602e836129b6565b9150613838826137d1565b604082019050919050565b6000602082019050818103600083015261385c81613820565b9050919050565b7f4552433732313a207472616e736665722066726f6d20696e636f72726563742060008201527f6f776e6572000000000000000000000000000000000000000000000000000000602082015250565b60006138bf6025836129b6565b91506138ca82613863565b604082019050919050565b600060208201905081810360008301526138ee816138b2565b9050919050565b7f4552433732313a207472616e7366657220746f20746865207a65726f2061646460008201527f7265737300000000000000000000000000000000000000000000000000000000602082015250565b60006139516024836129b6565b915061395c826138f5565b604082019050919050565b6000602082019050818103600083015261398081613944565b9050919050565b7f4552433732313a206d696e7420746f20746865207a65726f2061646472657373600082015250565b60006139bd6020836129b6565b91506139c882613987565b602082019050919050565b600060208201905081810360008301526139ec816139b0565b9050919050565b7f4552433732313a20746f6b656e20616c7265616479206d696e74656400000000600082015250565b6000613a29601c836129b6565b9150613a34826139f3565b602082019050919050565b60006020820190508181036000830152613a5881613a1c565b9050919050565b7f45524337323155524953746f726167653a2055524920736574206f66206e6f6e60008201527f6578697374656e7420746f6b656e000000000000000000000000000000000000602082015250565b6000613abb602e836129b6565b9150613ac682613a5f565b604082019050919050565b60006020820190508181036000830152613aea81613aae565b9050919050565b60008190508160005260206000209050919050565b60006020601f8301049050919050565b600082821b905092915050565b600060088302613b537fffffffffffffffffffffffffffffffffffffffffffffffffffffffffffffffff82613b16565b613b5d8683613b16565b95508019841693508086168417925050509392505050565b6000819050919050565b6000613b9a613b95613b9084612a5d565b613b75565b612a5d565b9050919050565b6000819050919050565b613bb483613b7f565b613bc8613bc082613ba1565b848454613b23565b825550505050565b600090565b613bdd613bd0565b613be8818484613bab565b505050565b5b81811015613c0c57613c01600082613bd5565b600181019050613bee565b5050565b601f821115613c5157613c2281613af1565b613c2b84613b06565b81016020851015613c3a578190505b613c4e613c4685613b06565b830182613bed565b50505b505050565b600082821c905092915050565b6000613c7460001984600802613c56565b1980831691505092915050565b6000613c8d8383613c63565b9150826002028217905092915050565b613ca6826129ab565b67ffffffffffffffff811115613cbf57613cbe612db4565b5b613cc982546131a4565b613cd4828285613c10565b600060209050601f831160018114613d075760008415613cf5578287015190505b613cff8582613c81565b865550613d67565b601f198416613d1586613af1565b60005b82811015613d3d57848901518255600182019150602085019450602081019050613d18565b86831015613d5a5784890151613d56601f891682613c63565b8355505b6001600288020188555050505b505050505050565b7f5072696365206d757374206265206174206c6561737420310000000000000000600082015250565b6000613da56018836129b6565b9150613db082613d6f565b602082019050919050565b60006020820190508181036000830152613dd481613d98565b9050919050565b6000608082019050613df06000830187612af2565b613dfd6020830186612af2565b613e0a6040830185612d00565b613e176060830184612981565b95945050505050565b7f4552433732313a20617070726f766520746f2063616c6c657200000000000000600082015250565b6000613e566019836129b6565b9150613e6182613e20565b602082019050919050565b60006020820190508181036000830152613e8581613e49565b9050919050565b7f4552433732313a207472616e7366657220746f206e6f6e20455243373231526560008201527f63656976657220696d706c656d656e7465720000000000000000000000000000602082015250565b6000613ee86032836129b6565b9150613ef382613e8c565b604082019050919050565b60006020820190508181036000830152613f1781613edb565b9050919050565b7f436f756e7465723a2064656372656d656e74206f766572666c6f770000000000600082015250565b6000613f54601b836129b6565b9150613f5f82613f1e565b602082019050919050565b60006020820190508181036000830152613f8381613f47565b9050919050565b600081519050919050565b600082825260208201905092915050565b6000613fb182613f8a565b613fbb8185613f95565b9350613fcb8185602086016129c7565b613fd4816129f1565b840191505092915050565b6000608082019050613ff46000830187612af2565b6140016020830186612af2565b61400e6040830185612d00565b81810360608301526140208184613fa6565b905095945050505050565b60008151905061403a8161291c565b92915050565b600060208284031215614056576140556128e6565b5b60006140648482850161402b565b91505092915050565b7f4e487b7100000000000000000000000000000000000000000000000000000000600052601260045260246000fdfea26469706673582212205d5c18b6959b7b828eee1bf997299564f0fa398a854b4a374d4f9e9819899dba64736f6c63430008180033",
  "linkReferences": {},
  "deployedLinkReferences": {}
}